:020000040800F2
:10000000500C0020A9010008EF3200087D280008EC
:10001000ED32000815150008413800080000000006
:10002000000000000000000000000000F73500089C
:100030001715000800000000F5350008F935000824
:10004000C3010008C3010008C3010008C301000880
:10005000C3010008C3010008C3010008C301000870
:10006000C3010008C3010008C3010008C301000860
:10007000C3010008C3010008C3010008C301000850
:10008000C3010008C3010008C3010008C301000840
:10009000C3010008C3010008C3010008C301000830
:1000A000C3010008C3010008C3010008C301000820
:1000B000C3010008C3010008C3010008C301000810
:1000C000C3010008C3010008C3010008C301000800
:1000D000C301000835380008C3010008C301000847
:1000E000C3010008C3010008C301000800F002F8C2
:1000F00000F04BF80AA090E8000C82448344AAF177
:100100000107DA4501D100F040F8AFF2090EBAE874
:100110000F0013F0010F18BFFB1A43F0010318473B
:100120005C5700007C570000103A24BF78C878C1A3
:10013000FAD8520724BF30C830C144BF04680C60ED
:10014000704700000023002400250026103A28BF35
:1001500078C1FBD8520728BF30C148BF0B60704739
:10016000662904F04486002070471FB59DE803000F
:1001700000F0F2F900F062FC04000020002103F01E
:100180005DFEE0601FBD10B510BD00F079FD1146A9
:10019000FFF7EBFF03F0C2FD00F097FD03B4FFF79C
:1001A000F2FF03BC00F0C8FD09488047094800473A
:1001B000FEE7FEE7FEE7FEE7FEE7FEE7FEE7FEE717
:1001C000FEE7FEE704480549054A064B7047000074
:1001D0005B360008ED00000850060020500C00209F
:1001E000500800205008002070B5064600F098F92D
:1001F000056806F10B0020F00704B4429CBF002004
:1002000070BD2B466A68BAB11068A04210D304F1E1
:10021000080188423CBF5068586007D351681019E4
:1002200041601168091B016058601460101D70BDA9
:1002300013465268002AE7D12146284600F078F993
:100240000028DED170BD70B50446051F00F068F9C6
:100250000068002C14BF446870BD002C18BFAC426D
:100260003CBF20466468F8D301680A18AA4218BF48
:10027000456003D12A680546114401602868411988
:10028000A1421CBF6C6070BD616869602168084450
:10029000286070BD0FB41CB5084B06AA7B446946A4
:1002A0000090059800F0ADFB04460020694600F080
:1002B000BBFB20461CBC5DF814FB00008907000056
:1002C0002DE9F05F894604464FF0000ADFF874B16B
:1002D000FB44C0F820A02046E1688847002874D07D
:1002E000252806D0D4E901219047206A401C2062CD
:1002F000F1E700265F462046E1688847202805464A
:1003000007DB312D05D2781910F8200C08B106430F
:10031000F1E7B00701D526F00406C4F81CA00027B9
:10032000C4F818A02A2D09D0284603F011FB38B3D1
:1003300004EB8708303DC8F8185019E059F8041B41
:10034000204604EB87029161E1688847012F05464A
:1003500018D1E069002820DA26F020061DE0D8F840
:10036000180000EB800005EB40003038C8F818009A
:100370002046E1688847054603F0EAFA0028EED1F6
:10038000012F0AD02E2D08D12046E16888477F1C16
:100390000546022F46F02006C4DBA069002803DAD8
:1003A000404246F00106A061F00701D026F0100699
:1003B0006C2D0BD0682D09D04C2D39D06A2D35D03D
:1003C000742D35D07A2D33D016E038E0E1682F4611
:1003D00020468847B842054609D16C2F26D04FF4F5
:1003E0008060E168064320468847054604E06C2F9C
:1003F0001AD04FF4807006430DB3A5F141001928BF
:1004000002D8203546F400664A4629462046266032
:100410004E46FFF7A5FE80B101280BD0F61D26F051
:10042000070000F1080956E74020E4E78020D8E7FC
:100430000020D6E706F104094DE7284652E7206A76
:10044000BDE8F09F625400004FF0000200B5134673
:1004500094469646203922BFA0E80C50A0E80C50E4
:10046000B1F12001BFF4F7AF090728BFA0E80C5095
:1004700048BF0CC05DF804EB890028BF40F8042B8E
:1004800008BF704748BF20F8022B11F0804F18BFFB
:1004900000F8012B704700004FF0013C50F8042B8E
:1004A00051F8043B9A4221D1A2EB0C03934313EA87
:1004B000CC1317D150F8042B51F8043B9A4215D1B4
:1004C000A2EB0C03934313EACC130BD150F8042B8B
:1004D00051F8043B9A4209D1A2EB0C03934313EA6F
:1004E000CC13DBD04FF00000704700BFD01A01BA28
:1004F000B1FA81F101F0180122FA01F0CB40C1F10B
:100500002001DBB2C0B2C01A2CFA01F3D11A914318
:1005100011EAC311E6D17047704770477047000079
:1005200000487047F80500207047704770477047D3
:1005300038B504460A4600206946AFF3008000281B
:1005400008BF38BD02460099204600F07FFA01201E
:1005500038BD012000F08CBBF8B5AFF30080054634
:1005600000200C46102000BF0646A819A0420DD955
:10057000324669460020AFF30080070008BF00F054
:1005800077FB0098A04218BF0546C419FFF7C8FFC3
:1005900005600746F01D20F007004619284600F0C8
:1005A0000AF8B44208BFF8BDA21B31463868BDE85E
:1005B000F84000F04BBA00210160C0E9011070471B
:1005C0001020704710B500F03DFA006810BD10B55E
:1005D000044600F037FA046010BD70472DE9FF4F64
:1005E0000C461E464FF0FF378BB0D2E90001DDF814
:1005F00060800A908A46C1F30A5505B93D4600213C
:1006000008464FF00000BAF1000F00F4400005DA90
:1006100000EB80004FF4400101EA50004FEA90598E
:10062000B9F1010F00DDB9460A9850EA4A000ED030
:1006300044F61050A5F2FF3545432F14B8F1000FD2
:100640001ED07542291E1EDDC9F100021CE0B8F162
:10065000010F4FF0000001D0302103E0F24305E02C
:100660002154401CB042FBDB3046002200212154C3
:100670000B99C1F80880C1E900200FB0BDE8F08FE8
:10068000BD1B6D1CDEE74A4600DA694206A800F091
:100690007DFA06AB93E8070003AB83E807005046FA
:1006A0000A9900F06FFB8DE80700A0F500501F3895
:1006B00000900398002D0ADD42F21F014A460844CB
:1006C000002303A90390684600F0D8FD09E0A0F5D7
:1006D00000504A461F38002303A90390684600F0E3
:1006E000E2FD8DE807000004000C03D04FF0FF305E
:1006F000410800E01046B8F1000F03D0002200923C
:1007000015461EE0751E05D400F0BAF93032625568
:100710006D1EF9D5B3460122084302D000227F1C8A
:1007200004E02078302801D100227F1E002A09979A
:1007300084D01DE0112D07DA00F0A2F930326255A5
:100740006D1C50EA0102F5D1084302D00098C8B1EF
:100750000EE00021681E05E0235C625C63542254B5
:10076000401E491C8142F7DBAB46A81B401E099086
:10077000002004F80B000B98099AC0F80880C0E923
:10078000002B7AE711264FF0000857E72DE9F04FCC
:1007900088460446D21D22F0070191B0D1E900013C
:1007A000CDE90A0103F04DF802460B98C00F01D0C5
:1007B0002D2007E02068810701D52B2002E02021B1
:1007C00001EAC000032A099001D0072A05DB03468D
:1007D0004146204600F09AF90BE12078800601D5C9
:1007E000E06900E00620B8F1650F814606D0B8F157
:1007F000660F18D0B8F1670F70D131E00020B9F161
:10080000110F009001DB112301E009F101030AAA95
:1008100001A90CA8FFF7E2FEDDE90C70002609F142
:100820000105834647E001204B4600904FF000470A
:100830000AAA01A90CA8FFF7D1FEDDE90DB00C99B9
:100840005D46002610B909F101000D18B9EB05004D
:1008500003D4C0F1FF3609F10105A5EB09002BE037
:10086000B9F1010F01DA4FF001090020B9F1110FC0
:100870000090484601DD112300E003460AAA01A9C1
:100880000CA8FFF7ABFEDDE90C704D460026834651
:10089000207800070AD4AB4500DA5D4601A8012D97
:1008A00004DD411911F8011C302907D04F4502DA47
:1008B00017F1040F04DA012082460FE06D1EEEE707
:1008C000002F02DCED1B3E4403E0781CA84200DD53
:1008D0007D1CB81B00F1010A4FF00047207800078B
:1008E00003D4AA4501DB4FF0FF3A0021B7F1004FD6
:1008F0000DF143088DF8431024D002202B23002F44
:1009000001DA7F422D230A21021EA0F1010000DC42
:100910005FB197FBF1FC97FBF1F201FB1C7C1746E2
:100920000CF1300C08F801CDEEE7A8F101000370DE
:100930002188090501D5452100E06521A0F10108C4
:1009400000F8011C09980FA9A1EB0807FF1D00B1D1
:100950000120411901EBEA70A1693844081A401ED0
:10096000A0612078C00602D42046AFF30080099829
:1009700028B1D4E901219047206A401C20622078E8
:10098000C00622D52046AFF300801EE0002E04DB17
:10099000B34502DD01A8805D00E03020D4E90121EB
:1009A0009047206A401C2062761CAAF101005FEA91
:1009B000000A0AD100F042F8C0680168405CD4E93E
:1009C00001219047206A401C2062281EA5F10105E4
:1009D000DCDC07E0D4E9012118F8010B9047206A1C
:1009E000401C2062381EA7F10107F3DC2046AFF35C
:1009F0000080032011B041E601694A1C02610878B9
:100A0000704700B58FB0CDE901310021059105494E
:100A10007944CDE9031011466846FFF751FC0FB049
:100A200000BD0000E5FFFFFF0A6802F8010B0A6045
:100A30007047000000487047F005002000487047EC
:100A40001006002000487047F0050020034640686B
:100A50008C46002818BF88423CBF03464068F8D344
:100A600018681844884207D00CF1030020F00700F2
:100A7000001D411A521A0146081D0A60FFF7E3BB28
:100A800030B5B0F10A024FEA900E71F100034EEA60
:100A9000817EB0EB0E0061EB91014FEA101E4EEA31
:100AA000017E10EB0E0041EB11114FEA102E4EEAC1
:100AB000016E10EB0E0041EB11214FEA104E4EEA91
:100AC000014E10EB0E0041EB1141401841F10001C5
:100AD0004FEAD00040EA41704FEAD10110EB8005A7
:100AE0004FEA810444EA907444EB01046D1944EB2D
:100AF0000404521BA3414FF0000348BF0A3200D543
:100B000030BD401C41F1000130BD00002DE9F04135
:100B10001F46044603260168072A01F4006004DB2F
:100B200008B116A505E016A503E008B115A500E07B
:100B300015A521F010002060A069C01EA0610FB1B2
:100B4000401EA0612046AFF300804FB1D4E90121DF
:100B500038469047206A401C2062C01C206206E094
:100B6000206AFAE7D4E9012115F8010B9047761EB7
:100B7000F8D22046AFF30080BDE8F0814E414E0030
:100B80006E616E00494E4600696E66002DE9F047C1
:100B9000814616468AB0354878440DC88DE80D0068
:100BA00032487844801C03AC0DC884E80D0041F63F
:100BB0009B300844372190FBF1F290FBF1F5A5F151
:100BC000800501FB12041B3C02D56442012000E0B9
:100BD0000020DFF898A080460027FA44AAF1BE0A58
:100BE0000EE0E0070AD03246684607EB47010123D2
:100BF0000AEB810100F057FB8DE8070064107F1CB1
:100C0000002CEED1194F7F44AE3F19E0E80715D014
:100C100007EB04100DF1180A90E80E008AE80E00A8
:100C2000C068F04201D1981908903246012306A904
:100C300003A800F038FB03AB83E807006D10641CC9
:100C4000002DE3D14FF0010332466946B8F1000FA1
:100C500003A802D000F012FB01E000F024FBC9E978
:100C60000001C9F808200AB0BDE8F087C84C0000B0
:100C700010B500F039F8BDE8104000F02FB870470B
:100C80007546FFF7D7FEAE4605006946534620F08D
:100C90000700854618B020B5FFF794FABDE820405C
:100CA0004FF000064FF000074FF000084FF0000B28
:100CB00021F00701AC46ACE8C009ACE8C009ACE8DB
:100CC000C009ACE8C0098D46704710B50446AFF3C3
:100CD00000802046BDE81040FFF760BA002801D030
:100CE00000F02AB87047000010B5012805D0002197
:100CF00003A000F027F8012010BD09A1F8E70000CB
:100D000053494752544D454D3A204F7574206F66F4
:100D10002068656170206D656D6F7279000000005C
:100D20003A2048656170206D656D6F727920636F40
:100D3000727275707465640001491820ABBEFEE7DD
:100D40002600020070B505460C460A2000E06D1C26
:100D500000F011F835B128780028F8D102E0641CC1
:100D600000F009F814B120780028F8D1BDE87040EF
:100D70000A20AFF3008008B569468DF80000032013
:100D8000ABBE08BD5FEA400C08BF91F0000F4FEA10
:100D90008C234FEAC12243EA51514FEA1C5018BF3D
:100DA00000F5F0404FEA300018BF41F000415FEA23
:100DB0006C5C00F02980BCF1FF3F08BF40F0804030
:100DC0007047130C06BF12044FF0100C4FF0000CCC
:100DD000130E04BF12020CF1080C130F04BF120112
:100DE0000CF1040C930F04BF92000CF1020CD30F12
:100DF00004BF52000CF1010C11464FF00002A0F1AB
:100E00001F00A0EB0C00704711F0004F08BF7047A7
:100E100031F000413FF4D5AF0B0C06BF09044FF091
:100E2000100C4FF0000C0B0E04BF09020CF1080C63
:100E30000B0F04BF09010CF1040C8B0F04BF8900D8
:100E40000CF1020CCB0F04BF49000CF1010CCCF1EA
:100E50002003A0EB0C0022FA03F302FA0CF241EAA1
:100E6000030100F10100704720F07F4C80EA03008D
:100E700023F07F47ACEB070303F57C5300F0004001
:100E800003F1FF032DE980494FEA154B09B44FEAFE
:100E9000144325EA0B4E24EA03480FF2042606EB1E
:100EA000132749083E785FEA320203FB0667C7F55D
:100EB000000707FB06F64FEA54374FEAD64606F11D
:100EC000020607FB066CCCF1005C4FEA1C472CEADB
:100ED000074C07FB06F40CFB06F504EB15464FEA3E
:100EE000961634BF00204FF000404FEAD13706FB82
:100EF00007FC4FEA1C4C0CFB0BF7D21B03FB0CF757
:100F000061EB07010CFB0EF7B0EB074072EB1742E9
:100F10000CFB08F734BFA2EB0742B2EB074261EBD0
:100F200017414FEA0C444FEA910706FB07FC4FEAD2
:100F30001C4C0CFB0BF7B0EBC74072EB573203FBBA
:100F40000CF734BFA2EBC742B2EBC74261EB57319B
:100F50000CFB0EF7B0EBC70072EB57720CFB08F7F7
:100F600034BFA2EBC702B2EBC70261EB5771039F1C
:100F70004FEA816141EA921104EBCC044FEAD13788
:100F80004FEA826206FB07FC42EA90124FEA806059
:100F90004FEA1C4C0CFB0BF7D21B03FB0CF761EB6D
:100FA00007010CFB0EF7B0EB074072EB17420CFB8E
:100FB00008F734BFA2EB0742B2EB074261EB1741DF
:100FC0004FEA8C554FEA910704EB9C2406FB07FC83
:100FD0004FEA1C4C0CFB0BF7B0EBC74072EB5732DF
:100FE00003FB0CF734BFA2EBC742B2EBC74261EB85
:100FF00057310CFB0EF7B0EBC70072EB57720CFBCE
:1010000008F734BFA2EBC702B2EBC70261EB57711E
:1010100015EB4C254FEA816141EA92114FEA826259
:101020004FEAD13742EA901206FB07FC44F1000474
:101030004FEA80604FEA1C4C0CFB0BF7D21B03FB02
:101040000CF761EB07010CFB0EF7B0EB074072EBFE
:1010500017420CFB08F734BFA2EB0742B2EB074282
:1010600061EB174115EB1C154FEA813141EA9241C2
:101070004FEA823242EA90424FEA80304FEA0C76E1
:1010800044F1000448EA03434EEA0B484FF0000ED7
:10109000B2EB080C71EB030724BF624639464EEBF6
:1010A0000E0E4FF0000B0018524149414BEB0B0B59
:1010B000B2EB080C71EB03077BF1000B24BF624617
:1010C00039464EEB0E0E4FF0000B001852414941CD
:1010D0004BEB0B0BB2EB080C71EB03077BF1000B36
:1010E00024BF624639464EEB0E0E51EA020718BF86
:1010F00046F0010616EB0E7655F1000254F10001A0
:1011000003D5BDE88901BDE80088BDE88901BDE8D7
:101110000048B619524141EB0101A3F101037047A8
:1011200080807F7E7D7C7B7A797877767675747324
:10113000727171706F6E6E6D6C6C6B6A6A696868E3
:10114000676666656464636362616160605F5F5E79
:101150005E5D5D5C5C5B5B5A5A59595858575756EF
:101160005655555554545353525252515150505054
:101170004F4F4F4E4E4D4D4D4C4C4C4B4B4B4A4AA6
:101180004A494949484848474747474646464545EA
:101190004544444444434343434242424241414123
:1011A000002B9C4630D477002BD01CB54FEA370774
:1011B00003B44FF010004FF01001BAF1000F06D049
:1011C000BCF1000FDCBF40F0080040F008014FF018
:1011D00000000FBCBDE810400BF1010BBBF1010F8B
:1011E00008BF5FEA170722BF12F1010211F10101E6
:1011F0004FF0004143F1000300F0004043EA0000DB
:101200007047F9D35708D0E746EA064613F1400F76
:101210004FEA16461FDD13F1200FDFBF16430A46C3
:10122000002120335B42BED0C3F1200746EA0646C8
:1012300002FA07F74FEA164646EA0706C3F1200707
:1012400022FA03F201FA07F721FA03F14FF0000343
:1012500042EA0702A7E746EA020646EA06464FEADE
:10126000164646EA0106BCBF46EA0646360C4FF073
:1012700000034FF000024FF0000194E72DE9804C8D
:101280009A46934670B491E8380007C831EA400C9A
:1012900048BF34EA430C03D5FFF7E6FDFFF780FFB4
:1012A000F0BCBDE8008C2DE9804C9A46934670B4A2
:1012B00091E8380007C810F0804F08BF13F0804F46
:1012C00003D100F005F8FFF76BFFF0BCBDE8008C20
:1012D00020F07F4780EA030023F07F4C07EB0C03EC
:1012E000A3F57C5300F00040A3F1FE0392F0000F41
:1012F00000F0B38095F0000F00F077802DE90149F0
:101300004FEA11404FEA144621EA004800FB06FC70
:1013100024EA064708FB06F607FB08F800FB07F778
:1013200018EB06484CEB164C4FEA124B18EB0748EB
:101330004FEA15464CEB174022EA0B4E0BFB06FC1E
:1013400025EA06470EFB06F607FB0EFE0BFB07F72A
:101350001EEB064E4CEB164C4FF000061EEB074EF4
:101360004CEB174B18EB0B0840F1000018EB0E0B81
:1013700058EB000840F100008F1A4FF000013CBF0D
:10138000C943661B14BFB5EB040C00213CBFC94325
:10139000F61B4FEA17444EEA8E0E27EA04454FEA41
:1013A0001C4704FB07622CEA074C05FB07F70CFB04
:1013B00005F604FB0CFC16EB074642EB174216EB56
:1013C0000C4642EB1C421BEB060658EB0202414165
:1013D00046EA9E0601D5BDE80189B619524141EBA6
:1013E0000101A3F10103BDE801894FEA14454FEA69
:1013F000114724EA054621EA074C05FB07F406FBE2
:1014000007F70CFB06F105FB0CFC11EB074144EB65
:1014100017444FEA124711EB0C4144EB1C4422EAFB
:10142000074C05FB07F206FB07F70CFB06F605FB6E
:101430000CFC16EB074642EB174216EB0C4642EB50
:101440001C456A1854F1000148BF7047B619524153
:1014500041EB0101A3F10103704795F0000F37D074
:101460004FEA11424FEA144721EA024624EA074CA8
:1014700002FB07F106FB07F70CFB06F402FB0CFC72
:1014800014EB074441EB17414FEA154714EB0C44AA
:1014900041EB1C4125EA074C02FB07F506FB07F769
:1014A0000CFB06F602FB0CFC16EB074645EB17455A
:1014B00016EB0C4645EB1C42121951F1000148BFD6
:1014C0007047B619524141EB0101A3F10103704786
:1014D0004FEA14454FEA114724EA054621EA074C32
:1014E00005FB07F106FB07F70CFB06F24FF00006C1
:1014F00005FB0CFC12EB074241EB174112EB0C42CF
:1015000051EB1C4148BF7047921841EB0101A3F118
:1015100001037047FEE7704772B6FEE710B590F81A
:1015200021100022022905D00421816380F82020A7
:10153000012010BD01680B6823F00E030B600168E9
:101540000B6823F001030B6090F84030C46B01215D
:1015500001FA03F3636080F8211080F82020104620
:1015600010BD000010B590F821100024022903D00E
:101570000421816301243DE001680A6822F00E0223
:101580000A6001680A6822F001020A601A4A0168CA
:10159000914201D1012121E0174A1432914201D137
:1015A00010211BE0144A2832914201D1891515E01F
:1015B000114A3C32914201D189140FE00E4A503257
:1015C000914202D14FF4803108E00B4A64329142DB
:1015D00002D14FF4801101E04FF08071064A083AC1
:1015E0005160012180F82110002180F82010416B0A
:1015F00001B18847204610BD0800024070B504467E
:1016000000F00CF90546601C02D004480078044440
:1016100000F004F9401BA042FAD370BD0000002086
:101620002DE9F84FDFF8B8910024A9F1040B234607
:101630000F2709F1040AABF1040EC9E00125A5400A
:101640002A40AA427DD1674ED1F804C0ACEB06080F
:10165000B44532D014DCBCF1030F3AD009DCBCF144
:10166000000F2AD0BCF1010F1CD0BCF1020F31D108
:101670001DE0BCF1110F17D0BCF1120F2AD119E0F7
:10168000B8F5881F19D006DCB8F5803F15D0B8F53D
:10169000801F1FD111E0B8F5001F0ED0B8F5041F50
:1016A00018D10AE0CB6815E0CB681B1D12E0CB68AF
:1016B00008330FE0CB680C330CE08B682BB1012BA7
:1016C0004FF0080303D0456104E0042302E0056104
:1016D00000E00023FF2A01D8064601E000F10406DD
:1016E0004FEA840501D9A5F12005D6F8008007FA54
:1016F00005FC28EA0C0803FA05F548EA0508C6F8CF
:1017000000804D68ED0062D5374DAE6946F00106A8
:10171000AE61AD6924F0030605F001050095334D77
:1017200006EB050CDCF80850A607360F07FA06F89A
:1017300025EA0805DFF8B880404503D14FF00008DE
:1017400017E044E0DFF8AC80404502D14FF00108DB
:101750000FE0DFF8A480404502D14FF0020808E016
:10176000DFF89880404502D14FF0030801E04FF0C8
:10177000040808FA06F848EA0508CCF808804D681D
:10178000D9F80060ED024D4601D5164300E09643BE
:101790002E604D68DAF80060AD02554601D516435B
:1017A00000E096432E604D68DBF80060AD035D46B7
:1017B00001D5164300E096432E604D68DEF80060C8
:1017C000ED03754601D5164300E096432E60641C78
:1017D0000D682A46E5407FF431AFBDE8F88F000080
:1017E00008040140000011100010024000000140F8
:1017F00000080140000C01400010014000140140AD
:10180000C26821EA02030A4043EA024101617047CB
:101810000AB1016170470904FBE7000001488068D4
:10182000704700000000002070B5040025D094F837
:101830003D00002520B984F83C50204600F00EFB06
:10184000242084F83D002068016821F00101016036
:101850002068016841F4004101602068016821F4BA
:101860000041016000F074FC4D4A6168914201D86A
:101870004C4900E04C49884201D2012070BD4B49DF
:101880002368B0FBF1F15E6826F03F060E435E6010
:101890006368934206D94FF4967359434FF47A73B1
:1018A000B1FBF3F12368491C1E6A26F03F06314361
:1018B00019626168914210D84900401EB0FBF1F2F4
:1018C000521CC2F30B02042A01D2042022E0B0FB16
:1018D000F1F0401CC0F30B001CE0A268F2B301EB76
:1018E000C10303EB0116431EB3FBF6F35B1C43F489
:1018F00080431B0549D092B301EBC10202EB0111F9
:10190000401EB0FBF1F0401CC0F30B0040F48040DF
:1019100040F400402168CA694CF6FF739A431043B3
:10192000C861D4E9071001432068026822F0C002B0
:1019300011430160D4E9030101432068826848F241
:10194000FF339A4311438160D4E9050108432168BC
:10195000CA6822F0FF021043C86001E00EE016E002
:101960002068016841F0010101602564202084F8AD
:101970003D00256384F83E50002070BD01EB410618
:10198000431EB3FBF6F35B1CB3E70120C2E701EB98
:101990004101401EB0FBF1F0401CC0F30B00B7E763
:1019A000A086010080841E0000093D0040420F0017
:1019B0002DE9F84F1F4690468A460446DDF82890E8
:1019C000FFF72CFF054694F83D0020287FD119230E
:1019D000012240492046009501F0B4F8002876D154
:1019E00094F83C00012872D0012084F83C00206863
:1019F0000168C90703D1016841F001010160206855
:101A0000016821F400610160212084F83D0010206C
:101A100084F83E0000262664C4F824806785608D23
:101A200020852D48E0622B464A465146204600F06C
:101A30003DFF90B9206841698069009036E02A46F0
:101A40004946204601F05CF950B1206C042804D1CD
:101A50002068016841F4007101600120BDE8F88F41
:101A6000606A216800780861606A401C6062618D6C
:101A7000491E6185218D491E89B2218522685369DD
:101A8000DB435B070BD451B100781061606A401CE6
:101A90006062608D401E6085208D401E20852A4634
:101AA0004946204601F022F80028CED1208D00289A
:101AB000C5D154F83D0B016841F40071016020204C
:101AC00004F81E09E67766770020C7E7FFE70220E3
:101AD000C4E70000020010000000FFFF2DE9FF4FE7
:101AE00083B00025DDE910799A4693460446DDF877
:101AF00048800095FFF792FE064694F83D002028A6
:101B00007CD11923012285492046009601F01AF85C
:101B10000028F5D194F83C0001286FD0012084F80A
:101B20003C0020680168C90703D1016841F0010148
:101B300001602068016821F400610160222084F8BE
:101B40003D00402084F83E0025646762A4F82A9096
:101B5000608D20857248E062CDE9008653465A4682
:101B60002046049900F0F0FE00287DD1208DDFF89A
:101B7000B491202768B1012814D002282068016898
:101B80001ED041F480610160206841698069009045
:101B9000B6E02068416981690091016841F40071F3
:101BA0000160ADE02068016821F48061016072B6D7
:101BB0002068416981690091016841F400710AE07F
:101BC00041F40061016072B6206841698169009149
:101BD000016821F48061016062B691E0032868D851
:101BE00001280CD0022843464FF000024946204607
:101BF00000960FD000F0A6FFB0BB10E08BE032469D
:101C00004146204601F044F870BB20680069616AD3
:101C100008706CE000F096FF30BB72B634E02068CC
:101C2000016821F48061016072B620680069616A10
:101C30000870606A401C6062208D401E2085608DA7
:101C4000401E6085384846F2A8110068B0FBF1F0EC
:101C5000C0EBC00000EB80000090401E009008D058
:101C600020684069C04300E029E040070CD5009897
:101C7000F3E744F8305F6773A573206940F02000F4
:101C8000206162B625731AE02068016841F4007192
:101C9000016020680069616A0870606A401C6062C7
:101CA000218D491E2185618D491E618562B621689D
:101CB0001BE032464146204600F0EAFF18B1012001
:101CC00007B0BDE8F08F20680069616A0870606A3B
:101CD000401C6062218D491E2185618D491E6185F0
:101CE00021684A69D24352070AD409690170606ABF
:101CF000401C6062208D401E2085608D401E6085E6
:101D0000208D00287FF46AAF84F83D7084F83E503F
:101D100084F83C50D4E70220D2E700000200100013
:101D20000000FFFF040001000C0000202DE9FF4F20
:101D300083B09A46DDE9119793460446DDF840806A
:101D4000FFF76CFD054694F83D0020287FD119234C
:101D5000012240492046009500F0F4FE002876D18B
:101D600094F83C00012872D0012084F83C002068DF
:101D70000168C90703D1016841F0010101602068D1
:101D8000016821F400610160212084F83D004020B9
:101D900084F83E0000262664C4F82480A4F82A9023
:101DA000608D20852C48E062CDE9007553465A4687
:101DB0002046049900F046FE70B930E02A463946C4
:101DC000204600F09DFF58B1206C042804D1206803
:101DD000016841F400710160012007B0BDE8F08F97
:101DE000606A216800780861606A401C6062218D29
:101DF000491E89B22185628D521E6285226853690F
:101E0000DB435B070BD469B100781061606A401C4A
:101E10006062208D401E2085608D401E6085208D73
:101E20000028CBD12A463946204600F05FFE002824
:101E3000CAD154F83D0B016841F4007101602020C3
:101E400004F81E09E67766770020C6E7FFE7022060
:101E5000C3E70000020010000000FFFF30B585B0AE
:101E6000002100910191029103911E4D03681E4CC7
:101E7000122103221D48AB4216D1A36943F0080387
:101E8000A361A369039203F008030493C023CDE97F
:101E900000316946FFF7C4FBE06940F40010E061DF
:101EA000E06900F4001019E0114DAB4217D1A369AD
:101EB00043F00803A361A369039203F008030493AA
:101EC0004FF44063CDE900316946FFF7A9FBE069B3
:101ED00040F48000E061E06900F48000049005B007
:101EE00030BD00000054004000100240000C0140D2
:101EF00000580040024881680278114481607047B0
:101F000000000020074810B5016841F01001016091
:101F1000032000F075F80F2000F006F800F024F818
:101F2000002010BD0020024070B50D4D04464FF456
:101F30007A712878B1FBF0F00A490968B1FBF0F03A
:101F400000F0DCFA48B9102C07D200222146501EBE
:101F500000F036F800206C6070BD012070BD0000FC
:101F6000000000200C0000200C4808B5816941F0F9
:101F700001018161816901F001010091C16941F0B4
:101F80008051C161C06900F08050009004484168F0
:101F900021F0E06141F00071416008BD0010024095
:101FA00000000140002809DB00F01F0201219140E0
:101FB0004009800000F1E020C0F8001170470000E7
:101FC000F0B40E4B1B680C46C3F30223C3F10705A4
:101FD000042D00D90425191D072901D2002300E092
:101FE000DB1E012606FA05F1491E214099409E405C
:101FF000761E16403143F0BC01F037BC0CED00E01A
:10200000064900F0070208684FF6FF03184040EA4F
:102010000220034A10430860704700000CED00E006
:102020000000FA052DE9F0470F46050061D0434E48
:10203000306800F00700B84209D2306820F007008D
:1020400038433060306800F00700B84251D128684A
:102050003B4C810712D5400703D5606840F4E0602F
:1020600060602878000703D5606840F460506060C5
:102070006068A96820F0F000084360602878C00715
:1020800028D06868012810D02168022810D089075C
:1020900000292EDA616821F0030101436160FFF736
:1020A000BDFB804641F288390DE021688903EFE7E6
:1020B0008901EDE7FFF7B2FBA0EB0801494502D922
:1020C0000320BDE8F0876068696800F00C00B0EBA1
:1020D000810FEFD1306800F00700B8420BD93068AB
:1020E00020F0070038433060306800F00700B84245
:1020F00001D00120E5E72878400705D56068E96848
:1021000020F4E060084360602878000706D5606826
:10211000296920F4605040EAC100606000F038F89E
:102120006168084AC1F30311515CC8400649086060
:1021300006480068FFF7F8FE0020C2E700200240D2
:1021400000100240F44E00080C00002004000020A3
:102150000448054900684968044AC1F30221515CFA
:10216000C84070470C00002000100240044F0008D7
:102170000448054900684968044AC1F3C221515C1A
:10218000C84070470C00002000100240044F0008B7
:102190000E4A51680E4801F00C03042B11D0082B95
:1021A0000FD10C48C1F38343C903C05C0AD5516801
:1021B000084AC1F34041921E515C054A5043B0FBAE
:1021C000F1F0704704494843704700000010024096
:1021D00000127A00E44E000800093D002DE9F84F96
:1021E000040070D02078C04DC00749D06868C0F3A3
:1021F0008100012807D06868C0F38100022809D156
:102200006868C00306D52868800339D5606800284F
:10221000E7D035E06068B0F5803F0BD010B1B0F585
:10222000A02F11D0286820F480302860286820F47E
:10223000802002E0286840F480302860606890B117
:10224000FFF7ECFA06460AE0286840F48020286090
:10225000F0E700BFFFF7E2FA801B642873D8286814
:102260008003F7D50CE0FFF7D9FA064605E000BF7A
:10227000FFF7D4FA801B6428F0D828688003F7D4CD
:1022800020789A4E80074FF001094FF0000839D5A9
:10229000686810F00C0F07D06868C0F3810002284E
:1022A00009D16868C00306D42868800714D520695E
:1022B000012808D110E02069B0B1C6F80090FFF7FE
:1022C000ADFA074605E00AE1FFF7A8FAC01B0228AD
:1022D000C4D828688007F7D52868616920F0F8001D
:1022E00040EAC10028600DE0C6F80080FFF796FACA
:1022F000074604E0FFF792FAC01B022823D828689B
:102300008007F7D4207800072CD57948A169D9B186
:10231000C0F80090FFF782FA074604E0FFF77EFA64
:10232000C01B02280FD8686A8007F7D571484FF4A0
:10233000FA510068B0FBF1F0009000BF0098411E18
:102340000091FAD20EE080E0C0F80080FFF766FA54
:10235000074604E0FFF762FAC01B022875D8686AD6
:102360008007F7D42078400760D5E8690027C000CF
:1023700008D4E86940F08050E861E869012700F07E
:10238000805000905C480168C90513D401688346F9
:1023900041F480710160FFF741FA824606E000BF18
:1023A000FFF73CFAA0EB0A0064284ED8DBF80000E7
:1023B000C005F5D5E06801280AD008B1052813D07A
:1023C000286A20F001002862286A20F0040002E058
:1023D000286A40F001002862E06841F2883B98B129
:1023E000FFF71CFA82460BE0286A40F004002862DE
:1023F000EEE700BFFFF712FAA0EB0A0159455AD8E1
:10240000286A8007F6D50CE0FFF708FA824605E057
:10241000FFF704FAA0EB0A0159454CD8286A800757
:10242000F6D41FB1E86920F08050E861E06988B314
:102430006968C1F38101022944D00228C6F860808E
:1024400004D0FFF7EBF9044638E034E0FFF7E6F993
:10245000074604E0FFF7E2F9C01B02282BD82868E2
:102460008001F7D4206AB0F5803F05D16868A16883
:1024700020F4003008436860D4E908010843696823
:1024800021F4741108436860C6F86090FFF7C6F93C
:10249000044606E025E000BFFFF7C0F9001B022854
:1024A00009D828688001F7D51BE000BFFFF7B6F90F
:1024B000001B022802D90320BDE8F88F286880019C
:1024C000F4D40EE00128F7D06868226A00F4803165
:1024D000914204D1616A00F47010884201D0012059
:1024E000EAE70020E8E70000001002400000424256
:1024F000800442420C0000200070004010B5401ED5
:10250000B0F1807F01D3012010BD4FF0E024606165
:102510000F21601701F0A9F90020A06107202061B8
:10252000002010BD70477047F8B501680446086880
:10253000CA684B6910F00F0F4FF0000559D003F037
:10254000010602F49077374365D0C10705D0D10565
:1025500003D5616C41F001016164410705D5D907DC
:1025600003D0616C41F002016164810705D5D90790
:1025700003D0616C41F004016164010707D502F0EA
:102580002001314303D0616C41F008016164616C4A
:1025900000293AD0800604D5900602D5204601F0E5
:1025A0008CF820684069616CC0F38010090700D482
:1025B00060B3204601F05AF820684069400621D5F2
:1025C0002068143050E8001F21F0400140E800125C
:1025D000002AF5D1E06BA8B16D494163E06BFEF7CD
:1025E000C1FF002811D0E06B416B01B0BDE8F040A5
:1025F000084783060FD593060DD52046BDE8F84061
:1026000001F05BB82046FFF78EFFF8BD2046FFF7CC
:102610008AFF6564F8BD266B2023012E7CD1C60697
:102620007AD5D60678D508684868009048694FF092
:102630000206400640D5E16B086840680004000CC3
:10264000E8D0A28D8242E5D9E085886920282DD086
:1026500020680C3050E8001F21F4807140E800121F
:10266000002AF5D12068143050E8001F21F0010144
:1026700040E80012002AF5D12068143050E8001F0D
:1026800021F0400140E80012002AF5D184F84230E0
:10269000256320680C3050E8001F21F0100140E84D
:1026A0000012002AF5D1E06BFEF738FF6663A08DBB
:1026B000E18D401A81B22AE0A08DE18D401A81B2ED
:1026C000E08D0028A6D00029A4D022680C3252E860
:1026D000000F20F4907042E80007002FF5D1206829
:1026E000143050E8002F22F0010240E80027002FAC
:1026F000F5D184F84230256320680C3050E8002F73
:1027000022F0100240E80023002BF5D1666320463A
:10271000FFF708FFF8BDFFE705062BD5150629D5FD
:1027200094F841002128F5D1A068B0F5805F01D16F
:102730002069B0B1206A411C21622168007848609C
:10274000E08C401E0004000CE084E3D12068C168E6
:1027500021F08001C1602068C16841F04001C16082
:10276000D8E7206A0088C0F308004860206A801C0F
:102770002062E5E74006CDD55006CBD5CA68204695
:1027800022F04002CA6084F8413000F076F8C1E7D8
:102790005D36000870B5040004D094F841000025AF
:1027A00010B106E0012070BD84F84050204600F0D2
:1027B00023F8242084F841002068C16821F40051E6
:1027C000C160204600F0DAFF2068016921F49041E1
:1027D00001612068416921F02A0141612068C168D6
:1027E00041F40051C1606564202084F8410084F800
:1027F00042006563002070BD30B585B000240094B0
:102800000194029403940068184988422CD1184816
:10281000816941F480418161816901F480410491C1
:10282000816941F0040181618069124D00F004006A
:1028300004904FF400700090022001900320039058
:1028400069462846FEF7ECFE2815CDE900046946E6
:1028500028460294FEF7E4FE002211462520FFF7E9
:10286000AFFB2520FFF79EFB05B030BD00380140CF
:10287000001002400008014070477047FEE7016801
:102880004A69D24352050FD46FF480624A61002135
:1028900040F8301F202242738173026942F0040223
:1028A000026101730120704700207047F8B50446AB
:1028B000C06A1E460D461746082807D0012805D0D5
:1028C00010F5803F02D0206B122804D120680168E7
:1028D00041F480710160134600224FF0011120463F
:1028E000009600F02FF940B120680068C00502D5BD
:1028F0004FF4007020640320F8BD2069B0F5804FCC
:102900000ED00620216800EAD51040F0F0000861E2
:1029100033463A460B49204600F05CF978B902E0AC
:1029200005F0FE0000E0E8B2216808610549334681
:102930003A46891F204600F04DF90028DCD00120DE
:10294000F8BD0000080001002DE9F84F04460068BA
:1029500089460B9D01689846174641F480610160E5
:102960002068016841F48071016000954FF0011BFF
:102970000022594620460A9B00F0E4F84FF4007A02
:1029800040B120680068C00501D5C4F840A003200C
:10299000BDE8F88F216809F0FE0008612B46284940
:1029A00020460A9A00F016F9F0BB20684169806958
:1029B00000902A4620460A9900F0A2F940B1206C06
:1029C00004283AD12068016841F40071016034E0C4
:1029D000FEB2B8F1010F09D02168380A08612A4611
:1029E00020460A9900F08CF90028E8D12068066199
:1029F0002A4620460A9900F083F90028DFD1206892
:102A0000016841F48071016000950022594620461A
:102A10000A9B00F097F80028B3D1216809F0FF0065
:102A200040F00100086100E007E02B460449204621
:102A30000A9A00F0CFF80028AAD00120A8E70000E9
:102A4000020001002DE9F843044600680D46DDE967
:102A5000089701689846164641F4807101604B461C
:102A600000224FF001112046009700F06BF848B1AA
:102A700020680068C00502D54FF400702064032070
:102A8000BDE8F883216805F0FE0008613B464A4630
:102A90001549204600F09EF888B920684169806990
:102AA00000903A464946204600F02AF948B1206C89
:102AB000042804D12068016841F4007101600120FC
:102AC000DEE7F5B2B8F1010F09D02168300A0861DC
:102AD0003A464946204600F013F90028E7D120681D
:102AE00005610020CCE700000200010070B5164629
:102AF0000D4604461EE02046FFF7C1FE08B1012046
:102B000070BD681C16D0FEF789FE801BA84200D855
:102B100085B920684069C04340070BD5002044F8C0
:102B2000300F20216173A073216941F020012161E0
:102B30002073E4E720684069C0434007DBD40020ED
:102B400070BD00002DE9F047984617460D46044633
:102B5000C1F30746DDF820902AE000BFB8F1FF3F3F
:102B600026D0FEF75BFEA0EB0901414502D8B8F183
:102B7000000F1DD12068012E16D0806925EA0000C3
:102B80000004000C12D00020B84211D1002044F8FB
:102B9000300F20216173A073216941F02001216170
:102BA00020730120BDE8F0874069E7E70120EBE7EB
:102BB0002068012E0AD0806925EA00000004000C7C
:102BC00006D00020B842C9D00020EBE74069F3E707
:102BD0000120F7E72DE9F047984616460D460446D2
:102BE0004FF000094FF0200AC1F3074723E02068A7
:102BF0004069C043400515D42068016841F4007164
:102C0000016021686FF480604861C4F8309084F8F6
:102C10003DA084F83E90216C41F00401216484F8C9
:102C20003C9021E0701C06D0FEF7F8FDA0EB0800F8
:102C3000B04203D816B1012F1FD021E02068012F28
:102C400015D0806925EA00000004000C18D000BFF0
:102C500044F8309F84F80DA084F80E90216941F06B
:102C60002001216184F80C900120BDE8F0874069C3
:102C700025EA00000004000CEAD12068406901E068
:102C80002068806925EA00000004000CAFD1ECE761
:102C90002DE9F041002590460E460446202728E005
:102CA0004069C043C0060CD454F8301B6FF01000CC
:102CB000486144F810596777A577206A2062257724
:102CC00014E0FEF7ABFDA0EB0800B04200D886B9D7
:102CD00020684069C04340060BD544F8305F6773F5
:102CE000A573206940F02000206125730120BDE814
:102CF000F08120684169C9434906D1D40020F6E734
:102D000070B516460D4604461EE02046FFF7B7FD97
:102D100008B1012070BD681C16D0FEF77FFD801B36
:102D2000A84200D885B920684069C04300060BD589
:102D3000002044F8300F20216173A073216941F015
:102D4000200121612073E4E720684069C043000648
:102D5000DBD4002070BD2DE9FF5F96B024AD0446A2
:102D600095E88301D4E908230893069201F058FD01
:102D70003A46434601F02EFBD4E9062301F074F8ED
:102D800007911290D4E910A3524638464146099360
:102D900001F020FBCDE90001D4E90C939B464A46A3
:102DA00001F03EFDD4E90E23CDE90B3201F038FDF0
:102DB000D4E9002301F058F83A46434601F00AFBF3
:102DC000D4E90A2301F050F805460E46DDE900017A
:102DD0004A465B4601F032FC8B460490DDE9000177
:102DE000DDE90B3201F02AFC0D910090D4E90201DB
:102DF0003A46434601F0EEFA5246099B01F034F898
:102E0000CDE90E01D4E904232846314601F02CF81F
:102E100080468A4602460B462846314601F0E0F8D5
:102E200081460F46424653460D99009801F0D8F866
:102E300080468A46DDE91801079B129A01F0F0FCF2
:102E40000B914A463B46109001F0C4FA079B129A38
:102E500001F00AF8C4E90601079112904046514674
:102E60000B9B109A01F0B6FA089B069A00F0FCFF43
:102E7000C4E90801049806902A4633464846394674
:102E800001F0A8FA2A46334601F0D8FBC4E90A014A
:102E90005B4648463946069A01F09CFA5B46049A1E
:102EA00001F0CCFBC4E90C012A46334640465146AA
:102EB00001F090FA0D9B009A01F0C0FBC4E90E01ED
:102EC0005B4640465146069A01F084FADDE90E233E
:102ED00001F0B4FBC4E91001079912981AB0BDE8DB
:102EE000F09F2DE9F04186B08046012504A8CDE988
:102EF000000564242B467522D02102944046FEF73B
:102F0000EDFD9DF81000682803D0012006B0BDE853
:102F1000F081002703AE8DF80C700096CDE90154C6
:102F200001236B22D0214046FEF700FF07208DF8D9
:102F30000C000096CDE9015401231922D02140460E
:102F4000FEF7F4FE8DF80C700096CDE901540123D4
:102F50001C22D0214046FEF7E9FE8DF80C70009649
:102F6000CDE9015401231B22D0214046FEF7DEFEAD
:102F70000020CBE72DE9F04F89B00C4664230E22E8
:102F800004A98DE80E0001233B22D021FEF7A6FD07
:102F9000BDF8100040BA00B22080BDF8121049BA46
:102FA00009B261808946BDF8141049BA09B2A180FE
:102FB0008846BDF8161049BA0FFA81FABDF8181004
:102FC00049BA0FB22784BDF81A1049BA0EB2668406
:102FD000BDF81C1049BA0DB2A58401F095F96FF047
:102FE0000D0B5A4601F037FFC4E90201484601F0D3
:102FF0008BF95A4601F02FFFC4E90401404601F065
:1030000083F90022614B00F0EBFFC4E90601504652
:1030100001F014FE5E4901F04FFD5E4901F0EAFC4B
:103020002064384601F070F95B4F00223B4600F007
:10303000D7FFC4E90A01304601F066F900223B4699
:1030400000F0CEFFC4E90C01284601F05DF9002232
:103050003B4600F0C5FFC4E90E01FEF7DFFB4F4D14
:103060002968401A01F067F900224D4B00F0B8FFC3
:1030700081468A46FEF7D2FB2860B4F90010B4F905
:103080000400494300FB001001F03EF900F0B0FEDF
:10309000002205460E46134601F0FAF810D0B4F9A6
:1030A000020001F031F92A46334600F099FF00F0A2
:1030B00057FC3C4A3C4B01F08DF90746884601E03D
:1030C0000027B846B4F9040001F01EF90646B4F929
:1030D00000000D46404201F017F932462B4600F041
:1030E0004FFD304A304B01F075F9DFF8C0B00546AE
:1030F0000E4600225B4601F031F906D2D4E91401F4
:1031000000222B4B01F064FA0DD30022284B2846F5
:10311000314601F05DFA0DD2D4E9140100225B467C
:1031200001F01CF906D21D485030C0E90656C4E92A
:1031300014560DE0CDE9029AD4E90C01CDE9000165
:1031400016482A4633465030FFF705FEC4E91401FD
:10315000D4E9140121F000410022154B01F038FAA6
:1031600003D2E16A81F00041E162CDE9029AD4E93B
:103170000A01CDE9000109483A4643460830FFF705
:10318000EAFDC4E9120109B0BDE8F08F0029CC4086
:103190000000AA43B81E12420060604010000020E8
:1031A00000408F40F8C1631ADCA54C40008056C037
:1031B0000080564070B586B000241C4800940194ED
:1031C00002940394816941F010018161816901F0E9
:1031D00010010491816941F020018161816901F050
:1031E00020010491816941F008018161816901F048
:1031F00008010491816941F00401816180690C4EEC
:1032000000F004004FF40055049000222946304697
:10321000FEF7FEFA01200095CDE90104022003909B
:1032200069463046FEF7FCF906B070BD001002405A
:10323000001001400D4810B50B4901600C49416078
:1032400000214FF480428160C0E903124161816135
:10325000C1610162FEF7E8FA002803D0BDE8104022
:10326000FEF75AB910BD00000054004000010020D4
:10327000801A06000D4810B50B4901600C494160E9
:1032800000214FF480428160C0E9031241618161F5
:10329000C1610162FEF7C8FA002803D0BDE8104002
:1032A000FEF73AB910BD000000580040540100205C
:1032B000801A06000C4810B50A4901604FF4E1314C
:1032C0004160002181600C22C160C0E9041281616B
:1032D000C161FFF75FFA002803D0BDE81040FEF798
:1032E0001BB910BD00380140A8010020FEE7FEE731
:1032F00010B50021074C0A46002004EBC1131A54F4
:10330000401CC0B28028FAD3491CC9B20829F3D3A3
:1033100010BD0000F0010020F0B57F282AD83F2919
:1033200028D88418802C02D9C0F18002D2B2CC18DF
:10333000402C02D9C1F14003DBB20126DFF838E0AE
:1033400087180B4414E001F0070206FA02F5CA08D8
:1033500004460EEBC21207E012F804C02CEA050C7A
:1033600002F804C0641CE4B2A742F5D8491CC9B2F3
:103370008B42E8D8F0BD0000F001002000204FF49F
:103380007A720021491C9142FCD3401C9042F8D330
:10339000704710B5FFF7F2FFAE2000F0F9F8D52026
:1033A00000F0F6F8802000F0F3F8A82000F0F0F824
:1033B0003F2000F0EDF8D32000F0EAF8002000F004
:1033C000E7F8402000F0E4F8A12000F0E1F8C82080
:1033D00000F0DEF8DA2000F0DBF8122000F0D8F878
:1033E000812000F0D5F8CF2000F0D2F8D92000F0ED
:1033F000CFF8F12000F0CCF8DB2000F0C9F8302045
:1034000000F0C6F8A42000F0C3F8A62000F0C0F831
:103410008D2000F0BDF8142000F0BAF8AF2000F0C5
:10342000B7F8FFF765FFBDE8104000F09DB810B594
:103430000C4640F0B00000F0ABF8102040EA141049
:1034400000F0A6F804F00F00BDE8104000F0A0B8AE
:1034500008B5082B0DD0062B0AD10A4B02EB42020D
:1034600003EB4202C03A00920823062200F00EF855
:1034700008BD054B03EB0212A2F500721023009267
:103480000822F3E7FC5400080C4F00082DE9FC4F1C
:103490001F4615460C4606467F284AD83F2C48D87A
:1034A000FFF73AFF781EC117002300EB517001218E
:1034B000DFF884B004F0070901EBE00737E00020F3
:1034C00031E031187F2930D803EBD40ABAF1070F65
:1034D0002FD80BEBCA1E03FB05F21EF801C00192A8
:1034E000DDF82C808044CDF8008012F8082002FA24
:1034F00009F24CEA020C0AF101020EF801C0072A97
:103500000FD80EEB0108DDE900C198F8802011F812
:103510000CC0C9F108012CFA01FC42EA0C0288F83F
:103520008020401CC0B2A842CBD35B1CDBB29F42C0
:10353000C5DCBDE8FC8F0000F00100202DE9F04162
:103540001E46154688460746002408E004FB067020
:10355000C0B233464146FFF77BFF641CE4B22A5DEC
:10356000002AF3D1BDE8F08170B5084D0024002198
:103570002046FFF75CFF05EBC410802100F018F82F
:10358000641CE4B2082CF2D370BD0000F0010020EE
:103590001CB5002101918DF805000A20009002233E
:1035A00001AA78210148FEF703FA1CBD540100204E
:1035B000F8B506460C46481CFCF716FE05464020AA
:1035C0002870002004E0315C2A18401C5170C0B201
:1035D000A042F8D30A200090631C2A4678210448B0
:1035E000FEF7E6F92846BDE8F840FCF72CBE0000DF
:1035F0005401002070477047FEF77CBC30B58FB097
:1036000028216846FCF720FF14210AA8FCF71CFFBC
:1036100001210804CDE90010002402940225049140
:10362000CDE907504FF4E01009906846FEF7D6FD4B
:1036300008B172B6FEE70F20CDE90A054FF48060AD
:10364000CDE90C4002210AA80E94FEF7EBFC0028FD
:1036500001D072B6FEE70FB030BD704710B5406ABA
:103660000021C185C184FEF75EFF10BD01680C31E9
:1036700051E8002F22F4907241E80023002BF5D18D
:103680000168143151E8002F22F0010241E80023C3
:10369000002BF5D1016B012909D101680C3151E8EA
:1036A000002F22F0100241E80023002BF5D1202149
:1036B00080F8421000210163704708B590F842106D
:1036C000222901D0022008BD82684FF480539A421B
:1036D00001D1016921B1816A9A421BD04AB10AE045
:1036E0000268816A5268C2F308020A80816A891CF2
:1036F00008E0026972B10268526802F07F020A7043
:10370000816A491C8162C18D491E0904090CC18569
:1037100003D01BE002685268F1E70168CA6822F032
:103720002002CA600168CA6822F48072CA60016817
:103730004A6922F001024A61202180F842100021EA
:103740004163026B012A03D0FFF796F8002008BD01
:10375000016301680C3151E8002F22F0100241E8AA
:103760000023002BF5D101680A68D20602D50A6849
:1037700049680091818DFEF7D5FEE7E770B50446F4
:1037800000680169E26821F4405111430161216937
:10379000A0680843616908432168CA6841F20C6364
:1037A0009A430243CA6020684169A26921F44071CA
:1037B000114341611E492068884202D1FEF7D8FCBE
:1037C00001E0FEF7C5FC00EBC00101EB00126068F0
:1037D00064218000B2FBF0F3B3FBF1F36FF0180645
:1037E0007343B2FBF0F5B2FBF0F605EB8305322331
:1037F00003EB0515B5FBF1F5B6FBF1F605F0F005A9
:1038000005EB0615B2FBF0F6B2FBF0F0B0FBF1F001
:103810006FF01802504306EB800003EB0010B0FB82
:10382000F1F0216800F00F002844886070BD0000AE
:10383000003801400148FEF777BE0000A8010020D3
:10384000FEE7490050EAC12018BF04204A0D18BF06
:1038500040F0010040F2FF72B2EB515F08BF40F050
:103860000200012808BF052070470907090E00283B
:1038700004DB00F1E02080F80014704700F00F0036
:1038800000F1E02080F8141D70472DE9F0414F1E33
:1038900000EBC7010446D1E9000115461E4637F08A
:1038A00006020DD02A46334600F094FD7F1E04EB3D
:1038B000C703D3E9002300F0D7FA37F00602F1D1AD
:1038C000022F25D0042F13D0062F18BFBDE8F0819A
:1038D0002A46334600F07EFDD4E90A2300F0C4FAFC
:1038E0002A46334600F076FDD4E9082300F0BCFAFE
:1038F0002A46334600F06EFDD4E9062300F0B4FA00
:103900002A46334600F066FDD4E9042300F0ACFA01
:103910002A46334600F05EFDD4E9022300F0A4FA03
:103920002A46334600F056FDD4E90023BDE8F041B5
:1039300000F09ABA012201F08EBA00F095BA0000A8
:10394000024A0020110701F086BA000001FDFFFFC6
:1039500030380A2801D2012070470020704700004B
:103960002DE9F84F04460D4621F0004000917349BF
:10397000814211DC7249884201DC06D12CB120461B
:103980002946BDE8F84FFFF7D5BF6E48002DCCBFE4
:103990006D496E49BDE8F88F6D49814211DD6D4971
:1039A0008142D8BF4FF0FF366DDD20462946FFF734
:1039B00048FF042808BFFFF7C3FF20462946BDE89B
:1039C000F88F6549654F25F00045814233DD644934
:1039D000814219DD002632464FF0804320462946B9
:1039E00000F042FA80468A4601222046294601F02C
:1039F00032FA00223B4600F013FF4246534600F0E5
:103A0000EFFA04460D463EE001260022BA463B4648
:103A10002046294600F028FA80460F4600225346E9
:103A20002046294600F0FCFE42463B4600F0D8FA0C
:103A300004460D4627E04B4981421BDDDFF828A1F3
:103A40000226002253462046294600F0C3FC0022ED
:103A50003B4600F009FA80460F46002253462046B6
:103A6000294600F0DDFE42463B4600F0B9FA044626
:103A70000D4608E0032622462B4600203B4900F075
:103A8000AFFA04460D4622462B461046194600F072
:103A9000A1FC8B46824602460B4600F09BFC074683
:103AA0000246334888460B4606217844FFF7EDFE70
:103AB00052465B4600F08EFC82462E488B463A46C4
:103AC000434605217844FFF7E0FE3A46434600F0BE
:103AD00081FC02460B46002E504659460CDA00F097
:103AE000C3F922462B4600F075FC01B022462B4656
:103AF000BDE8F04F00F0A2BD00F0B6F922462B461B
:103B000000F068FC1C4A7A4402EBC603D3E90023A8
:103B100000F086FE22462B4600F082FE174A7A44C9
:103B200002EBC603D3E9002300F088FD009A002AC7
:103B3000B8BF81F00041BDE8F88F000000001044DC
:103B40000000F07F182D4454FB21F93FFB21F9BF01
:103B50000000DC3F0000203E0000F33F0000F03F8B
:103B60000000E63F008003400000F83F0000F0BF87
:103B7000021D0000C01C00005E1C0000261C00008E
:103B80002DE9F04D9446CCF1000423F000464CEAB8
:103B90000404594F46EAD4749A46884621F00042FC
:103BA000BC4206D8454240EA050442EAD474BC420D
:103BB00004D9BDE8F04D6246FFF7BFBEAAF14055FB
:103BC000A5F17F6555EA0C040BD0022404EAAA741F
:103BD0004A4DDFF82CE144EAD87452EA000B04D0D5
:103BE0000CE0BDE8F04DFFF7BBBE002C14BF012C6C
:103BF000BDE8F08D022C30D0032C32D056EA0C0BED
:103C00000AD0BE4220D1BA4209D126F0804622F025
:103C100080423346114617E000291ADB25E0DFF821
:103C2000E4B0FB44002C04BFDBE90001BDE8F08DEB
:103C3000012C02BFDBE9000181F00041BDE8F08DFD
:103C4000022C0AD0032C0CD0BA4212D1B8F1000FCA
:103C50000BDA2A482C49BDE8F08D28462B49BDE8EF
:103C6000F08D28467146BDE8F08D24482849BDE80E
:103C7000F08D921B12153C2AC4BF204F244E10DC3D
:103C8000BAF1000FBEBF12F13C0F00273E4608DB21
:103C9000624600F0A5F921F00041FFF761FE0746FA
:103CA0000E4694B1012C08BF86F000460DD0194A8B
:103CB000194B022C3846314615D000F0B1FD2A468A
:103CC000BDE8F04D114B00F0ABBD00221346384665
:103CD000314600F0DDFA04BF0220FCF778FC3846DC
:103CE0003146BDE8F08D00F09BFD2A46BDE8F04D61
:103CF000064B00F0A3BC00000000F07F182D4454D8
:103D0000FB2109C0BA1B0000FB21F9BFFB210940C0
:103D1000FB21F93F075C143326A6A13CB2B0FEF7A5
:103D2000F1F8FFF76BFCFFF745FAFFF783FAFFF7AF
:103D3000C1FAFFF79FFA0122234F54032146384668
:103D4000FDF766FDFFF725FB082320A214211020B4
:103D5000FFF7F4FBFFF708FC4FF47A70FDF74EFC19
:103D6000FFF7C6FA1C48FFF7BCF80128FAD01B4E33
:103D7000A0461A491848FFF7FDF86420FDF73EFCFD
:103D800006F1480216A13CCA6846FCF783FA2246AF
:103D90002B4615A119A8FCF77DFA002108236A46D5
:103DA0000846FFF7CBFB082319AA10210020FFF7D4
:103DB000C5FBFFF7D9FB41463846FDF721FD6320DF
:103DC000FDF71CFCD5E70000001001404C4F4144BA
:103DD000494E472E2E2E000054010020A80000203E
:103DE00058203D202566000059203D202566000012
:103DF0002DE9F04106460F4600F02CFC041E0D464E
:103E000018BF0120284320F00040C0F17F6000F17E
:103E1000E040C00F0ED0301C18BF0120384320F006
:103E20000040C0F17F6000F1E040C00F04BF0120FE
:103E3000FCF7CDFB20462946BDE8F08110B50029EE
:103E40000AD00878002807D005487844FCF724FBFE
:103E5000002801D0002010BD0248784410BD0000A9
:103E6000521A00004A1A000010B591EA030F48BF29
:103E700083F0004300F1DC84841A71EB030C05D25B
:103E8000121943EB0C03001B61EB0C01DFF824E17A
:103E90004FEA1154A4EB135C1EEA430F18BF9EEACD
:103EA000445F73D023EA0E03DCF1200E21EA0451B3
:103EB00043F4801332D322FA0CFE10EB0E0023FAE7
:103EC0000CFE41EB0E01CCF1200E03FA0EFE10EBBE
:103ED0000E0051F10001B1F5801FCCF1200E32D25D
:103EE00001EB045112FA0EF2BDE8104058BF7047C2
:103EF000401C38BF5FEA420218BF7047002814BF59
:103F000020F0010041F100014FEA410313F5001FC9
:103F100038BF7047A1F1C04100F054BB012A43EB08
:103F20000302ACF1200CDCF11F0E32BF4FF0000E8B
:103F300023FA0CF310EB030041EB0451B4EB115FD7
:103F4000D0D0A1EB045101F5801149085FEA30009F
:103F500001EB04510ED350F1000038BF12FA0EFEEF
:103F600008D1BDE81040C9E7401C38BF5FEA4202F3
:103F7000CAD1C3E7BDE810404FEA410313F5001F63
:103F800038BF7047A1F1C04100F01CBB9EEA445FFE
:103F900008D011EA5E0FBDE8104004BF01F00041F7
:103FA00000207047BDE8104070B500F0BDFA00BFBA
:103FB00064FBBE3E0000E0FF02494FF0000000F04D
:103FC00018BF00BF0000F87F491058BFC1F1404141
:103FD0005B1058BFC3F140438B42EFF30080704742
:103FE0002DE9C04130B4DFF8A0C23CEA111418BF7B
:103FF0003CEA131400F0EC8081EA03051CEA11147A
:1040000044EAD57418BF1CEA131500F0C780A4EB6E
:1040100005044FF0004545EAC12145EAC32341EAC2
:10402000505143EA525304F17F74994204F500342D
:104030004FEAC0204FEAC22208BF904200F09C80A5
:104040004FEA13650FF24016765D4FEA134506FB03
:1040500005F7C7F1807706FB07F74FEAD737A7FBCD
:1040600003687642C8F58038A7FB06CE38BFA8F1B2
:10407000010807FB08E64FF0000EA6FB028CE6FBEA
:1040800003CEDCF1000CCEF1004E38BFAEF1010ED4
:10409000A6FB0C584FF000074FF00005E6FB0E871B
:1040A000A1FB08C6A0FB07CE16EB0E0645F10005E6
:1040B000E1FB076515F1E04E7EBFA4F580345FEAB1
:1040C00046066D4116F1800745F100054FEA1727B6
:1040D0004FEA066647EA0567A6F1DE46B6F1805F5D
:1040E0004FEA15251FD9384624F0010C05EBC471A1
:1040F000BCF1FE6F01EB0C1102D8F0BCBDE80081F1
:1041000024425CBF01F5801E9EEAC47F02D4F0BC4D
:10411000BDE80081244238D4F0BCA1F1C041BDE823
:10412000004100F04FBA4FEAD22242EA43524FEA2E
:10413000D323A7FB02864FEAD02040EA415007FB79
:1041400003661EEA0E0F4FEAD12105FB026658BF37
:10415000A6EB0056B6EB00564FEA520E4EEAC37E6F
:1041600018EB0E0E56EB530EBDD518EB02085E4150
:104170007F1C55F10005B6E74FF480154FF000079E
:104180004FF000064FF00008ADE7F0BC4FF0000024
:1041900001F1C04101F00041BDE8008111EA0C1FAE
:1041A0000CEA131500D00CE013EA0C1F00F0258078
:1041B0004FF00000F0BC81EA030101F00041BDE8CE
:1041C0000081F0BCBDE8004181EA030100F0FAB9CA
:1041D000F0BCBDE8004170B500F0A6F9097EFC3ED8
:1041E00000F007B881EA03014FF0000001F0004140
:1041F000704781EA030100F0E5B9F0BCBDE8004179
:104200004FF0000021497047FFFDFBF9F7F5F4F28C
:10421000F0EEEDEBE9E8E6E4E3E1E0DEDDDBDAD861
:10422000D7D5D4D3D1D0CFCDCCCBCAC8C7C6C5C4BF
:10423000C2C1C0BFBEBDBCBBBAB9B8B7B6B5B4B3D6
:10424000B2B1B0AFAEADACABAAA9A8A8A7A6A5A4C1
:10425000A3A3A2A1A09F9F9E9D9C9C9B9A99999885
:104260009797969595949393929191908F8F8E8E28
:104270008D8C8C8B8B8A89898888878786858584B5
:1042800084838382828181800000FF070000F87FA1
:1042900051EA030C17D41CF5801F58BFBCF5801FD2
:1042A00000F10680994218BF704708BF90427047DE
:1042B00007D711F5801F58BF13F5801F19D49942F5
:1042C0007047894270471CF5801F08D5BCF5801FD8
:1042D000F7D58B4218BF704708BF824270474FF432
:1042E000001C1CEB410F38BF1CEB430F01D28B426B
:1042F000704770B500F018F9922449004FF0005152
:104300004FF08053FFF760BE10F0004248BF4042BC
:10431000B0FA80F310FA03F10AD0C3F11D0303F5DC
:1043200080634FEA415002EB035202EBD121704708
:104330004FF000007047B0FA80F310FA03F10AD092
:10434000C3F11D0303F580634FEA41504FEA035266
:1043500002EBD12170474FF00000704751EA030C87
:1043600017D41CF5801F58BFBCF5801F00F10680D4
:10437000994218BF704708BF9042704707D711F5A0
:10438000801F58BF13F5801F19D499427047894286
:1043900070471CF5801F08D5BCF5801FF7D58B42F0
:1043A00018BF704708BF824270474FF4001C1CEBD7
:1043B000410F38BF1CEB430F01D28B42704770B5E1
:1043C00000F0B2F8922449004FF000514FF08053B2
:1043D000FFF7FABDDFF848C170B51CEA111E1EBF19
:1043E0001CEA13159EEA0C0F95EA0C0F00F06F8083
:1043F00081EA030423EA4C134EEAD47E21EA4C11ED
:1044000041F4801143F48013AE44A1FB024CA0FBA5
:104410000365AEF17F7E361955EB0C05A1FB034C0D
:104420004CF10003A0FB021C16EB0C06654153F196
:104430000003094218BF46F0010613F4007F0BD1B8
:104440004FEA03314FEA0530340341EA155140EA9F
:1044500016506FF003020AE04FEAC3214FEAC5206D
:10446000F40241EA555140EA56506FF0020202EB65
:104470002E4201EB025585EACE710AD05FEA440C68
:1044800018BF24F0004450F1000041F1000120EA7F
:10449000D47040F2FE7C624500D270BDA84214BFC9
:1044A0004FF080444FF04044002E08BF0024BEF17E
:1044B000806FA8BFA1F1C041BDE8704080F282804A
:1044C0004FF0000001F1C04101F0004170479EEA49
:1044D0000C0F0CEA131518BF95EA0C0F06D04FF01D
:1044E000000081EA030E0EF0004170BD00F01CF8E0
:1044F0008900013E00F007B800F009B84FEA430C0C
:104500005FEA5C5C08D081EA030100F05BB84FEA27
:10451000410C5FEA5C5CF6D14FF000000149704746
:104520000000FF070000F87F0EF1020E2EF0030ED0
:104530005EF8046B364205D4012A43EB030515F5FA
:10454000001F12D8012841EB010C1CF5001F0CD8EC
:104550000ED14FEAD17C15F5001F0CEB4C0C0CF181
:10456000020C08BF4CEBD37C04E04FF0080C01E0D8
:104570004FEAD37C0CEB4C0526FA05F606F007064D
:10458000B6F1040C06D20EEB860CBDE870404CF080
:10459000010C6047DFE80CF0090B02024FF000410C
:1045A0004FF00000A1F5002170BD1946104601280A
:1045B00051EB010418BFD4F5001484BF002001F0B2
:1045C000004170BD0808A0F500114FEA31017047A5
:1045D00053EA010C17D41CF5801F58BFBCF5801F8F
:1045E00000F106808B4218BF704708BF82427047B7
:1045F00007D713F5801F58BF11F5801F19D48B42C0
:1046000070479B4270471CF5801F08D5BCF5801F82
:10461000F7D5994218BF704708BF904270474FF4D2
:10462000001C1CEB430F38BF1CEB410F01D2994219
:1046300070470FB40CBC03BCFFF7C1BE91EA030F77
:1046400010B581F000413FF517AC83F0004300F056
:10465000EFB800002DE9F04101F5801CBCF5001F0A
:10466000C0F2C3804FEA115C21EA0C510CF1FD0C41
:1046700041F480115FEA5C0C0CF5C07C01D3400072
:1046800049413DA4890241EA905187028E0E0A0CED
:10469000A45D04FB04F602FB06F6C6F14046A4FB4B
:1046A0000662F60D46EA422606FB06F4A4FB012349
:1046B0005242C3F1404338BF5B1EA6FB02420024B6
:1046C000E6FB0324D20B42EA4446A6FB0623A1FBE9
:1046D00002E2A3FB07E4A4184FF0000252F100022B
:1046E000E3FB01426442C2F1404E38BFAEF1010E1D
:1046F000A6FB04234FF00002E6FB0E32A2FB0346AA
:104700004FF00004B61954F10004E2FB0264A1FB6F
:1047100006E6A4FB07E816EB08064FF0000858F180
:104720000008E4FB01687642C8F1405838BFA8F1A0
:104730000108A2FB06E4A3FB08E52D194FF00004D5
:1047400054F10004E2FB0854A1FB05E6A7FB04E8D2
:1047500018EB06084FF0000656F10006E1FB048650
:1047600018F1200556F10006A809A8F11B08B109A7
:1047700008F03F08B8F10A0F40EA86601CD901EB47
:104780000C51BDE8F08100BFFCF5EEE8E2DDD8D3C6
:10479000CFCBC7C3C0BDB9B6B4B1AEACA9A7A5A3B2
:1047A000A19F9D9B9A9896959392908F8D8C8B89C3
:1047B0008887868584838281A0FB006800FB01F2E4
:1047C00008EB4208B8EB872807D5341858EB0104EA
:1047D000D5D5401C51F10001D1E7341A78EB010422
:1047E000CDD4401E71F10001C9E75FEA4C0C5FEACD
:1047F0009C5C0DD105D34FF0000001F00041BDE8F5
:10480000F081BDE8F04170B5FFF78EFE6DDBFFBEB5
:10481000BDE8F0414FF00000004970470000F87F0C
:1048200010B591EA030F48BF83F000433FF524AB76
:10483000841A71EB030C07D212198CF0004C43EB75
:104840000C03001B61EB0C01DFF8A4E14FEA1154EB
:10485000A4EB135C1EEA430F18BF9EEA445F00F00E
:10486000B08023EA6E03524221EA0451C3EB6E0387
:1048700038BF5B1EDCF1200E25D322FA0CFE10EBB4
:104880000E0043FA0CFE41EB0E01CCF1200E03FAB0
:104890000EFE10EB0E0051F10001CCF1200E29D4D8
:1048A00012FA0EF201EB0451BDE8104058BF7047F8
:1048B000401C1CBFB2F1004F704700280CBF491CC0
:1048C00020F00100704712EB020E43EB030218BF09
:1048D0004FF0010E4EEA4202ACF1200CDCF11E0E4C
:1048E00054D943FA0CFE10EB0E0051F1FF31CCF11C
:1048F0001E0ED5D50EF1010E12FA0EFE404141EB0F
:10490000010101EB445C5FEA5C5C10D910EBDE70E6
:1049100001EB045138BFBEF1004FBDE8104018BF95
:10492000704700280CBF491C20F00100704730D2AE
:104930004FEAD42C11F5001124F400641BD0B1FA15
:1049400081F20B3AA41AA41ED2F12003914030FA4E
:1049500003F31943904001EBCC71002C01EB04519F
:10496000BDE81040A8BF704701F1C0414FF0000002
:1049700001F000417047B0FA80F310FA03F100D162
:1049800010BDE41A173C4805C90AE4E701EB0451DD
:1049900010BD491001EB0451BDE810404FEA300052
:1049A00002E04FF0000170474A0008BF0042F8D013
:1049B000B2F5001F28BF704701F000414FF0000022
:1049C00070479EEA445F07D011EA5E0FBDE81040D1
:1049D00004BF002100207047BDE8104070B5FFF70C
:1049E000A3FD00BF40DFF63E83F000411046704754
:1049F0000000E0FF90EA010F48BF81F0004100F1A4
:104A00008881421A3CBF801A89184FEAD0524FF071
:104A10007F4C1CEA410FA2EBD15318BF9CEA026FF6
:104A200000F03B804FF0004C4CEA00204CEA0121A2
:104A300021FA03FC10EB0C0C1ED202F1FF325FEAEC
:104A40001C2040EBC25038BF70471CF07F0F4FEA6C
:104A5000400C18BFBCF17F4F38BF7047C3F1200333
:104A6000994008BF20F00100BCF17F4F38BF70476C
:104A7000A0F1C04000F040B94FEA3C00000A40EB12
:104A8000C25028BF1CF0FF0F4FEA400CE6D018BF01
:104A9000BCF17F4F38BF7047EAE79CEA026F05D050
:104AA00010EA5C0F08BF00F00040704710B500F03E
:104AB000DDF800BF64FBBE3E4FF47F0C1CEAD01251
:104AC0001EBF1CEAD11392EA0C0F93EA0C0F00F000
:104AD000858090EA010F48BF42F4807240F4000CD8
:104AE00041F400002CF07F4120F07F4000B581426E
:104AF000A2EB03020FF2081CACEB504EC0F1000019
:104B00009EF800E04FEA4E0E00FB0EFC38BF490055
:104B10004FEA2C1C02F5FA020CFB0EF34FEACE1EF4
:104B20004FEA112C4FEAC1210EEB635E42EB2242A9
:104B30000EFB0CFC4FEA1C5300FB03114FEA112C37
:104B40004FEA01310EFB0CFC4FEADC4C00FB0C1170
:104B5000C14228BF09184CEB03335DF804EB10EB9E
:104B6000410143EBC250B2F57C0F38BF704729D5E5
:104B700012F0F00F1CBF00F1C04000F00040704781
:104B8000008182838485868788898B8C8D8E8F9126
:104B90009293959697999A9C9D9FA0A2A3A5A7A84A
:104BA000AAACAEB0B2B3B5B7B9BCBEC0C2C5C7C976
:104BB000CCCED1D4D7D9DCDFE2E6E9ECF0F3F7FADA
:104BC000FE0000004FEA400C0CF1807CBCF17E4FEF
:104BD00028BF7047B0F1C04000F08EB890EA010FD6
:104BE0000CEAD11348BF42F48072624538BF634576
:104BF00007D213F47F0F16D080EA010000F00040C6
:104C0000704710B500F032F8097EFC3E00F005B8A0
:104C100080EA010000F00040704780EA010000F0E7
:104C2000004000F069B812F47F0F04BF02487047DB
:104C300080EA010000F060B80000C07F10F0004181
:104C400048BF4042B0FA80F310FA03F2C3F19D036B
:104C50000BD051EAC35101EB1220530638BF704705
:104C600000F1010008BF20F0010070470EF1020EB4
:104C70002EF0030E5EF8044B244204D44FEA4102A6
:104C8000B2F17F4F11D84FEA4003B3F17F4F0CD8F8
:104C90000ED14FEAD07CB2F17F4F0CEB4C0C0CF1F3
:104CA000020C08BF4CEBD17C04E04FF0080C01E093
:104CB0004FEAD17C0CEB4C0324FA03F404F0070414
:104CC000B4F1040C06D20EEB840CBDE810404CF09D
:104CD000010C6047DFE80CF0070802024FF00040CB
:104CE000A0F5800010BD0846420018BFD2F18072C6
:104CF00088BF00F0004010BDFF2141EAD050C00540
:104D00007047000090EA010F48BF81F000413FF575
:104D100078AE421A04D882F00042A0EB020011449F
:104D20004FEAD0524FF07F4C1CEA410FA2EBD15317
:104D300018BF9CEA026F4AD04FF0004C4CEA0020AA
:104D40004CEA012121FA03FCB0EB0C0C0FD412F059
:104D5000FE0F36D05FEA4C001DD5001240EBC2506A
:104D600038BF70471CF03F0F18BF70470BE0A2F12F
:104D700001025FEA1C2040EBC25038BF70471CF0B4
:104D80007F0F18BF7047C3F12003994014BF401E26
:104D900020F00100704780084FEA122308BF7047D7
:104DA000B0FA80FCA2EB0C02CCF1280C60FA0CF0FB
:104DB00093EA122F04BF00EBC25070474FEAC37052
:104DC0007047130A5FEADC1008BF7047F6E79CEAF9
:104DD000026F04D010EA5C0F08BF0020704710B5C6
:104DE000FFF744FF40DFF63E81F000407047FBF7DD
:104DF000CDBC0CF00F03092B08BF082000F0598030
:104E00000A2B0BD0082B18BF704708BF1CF0400FAF
:104E10000AD04FF000004FF0000170471CF0400F27
:104E200018BF4FF0004070471CF0100F08D020F062
:104E3000704300F07F4242EAD3014FEA437070476B
:104E400000F0604021F07F4242EA000201F07F4022
:104E500040EA727070474FF0FF0C4CF4E06C1CEAB3
:104E600011531CBF9CEA030C9445C2BFDA4201EB0C
:104E700002517047002B0DD0BCF1000F0FD0002A5B
:104E800001F00041A4BF41F0E04141F07F614FF0EB
:104E90000000704701F000414FF00000704750EAF9
:104EA00001334FF09B0C18BF4CF0806C7FF484A84A
:104EB00070471CF4801F11D01CF4E02F03D06FEA60
:104EC000CC31490070474FF04050EFF3008222F0A0
:104ED000704242EA000282F3008870474FF00000FF
:104EE0007047010202030405060708090A0B0C0DAE
:104EF0000E0F10100000000000000000010203046B
:104F00000607080900000000010203040000000079
:104F1000000000000000000000000000000000F899
:104F200000000000000000333000000000160E00FA
:104F3000160E0000000000000000000040C0784095
:104F4000C0784000043F04043F040400007088FC63
:104F500008300000001820FF211E0000F008F000BB
:104F6000E018000000211C031E211E0000F008882C
:104F7000700000001E2123241927211000000016B4
:104F80000E0000000000000000000000000000E033
:104F90001804020000000007182040000002041856
:104FA000E00000000040201807000000404080F0B2
:104FB000804040000202010F01020200000000F0E8
:104FC000000000000101011F0101010000000000BC
:104FD0000000000000B070000000000000000000B1
:104FE00000000000000101010101010100000000BA
:104FF0000000000000303000000000000000000051
:1050000080601804006018060100000000E010082D
:105010000810E000000F102020100F00001010F802
:10502000000000000020203F202000000070080841
:1050300008887000003028242221300000300888C1
:10504000884830000018202020110E000000C020E9
:1050500010F8000000070424243F240000F808880A
:10506000880808000019212020110E0000E0108897
:1050700088180000000F112020110E0000380808C9
:10508000C83808000000003F0000000000708808D9
:1050900008887000001C222121221C0000E010085A
:1050A0000810E0000000312222110F00000000C0B3
:1050B000C00000000000003030000000000000C010
:1050C000C0000000000080B07000000000008040C0
:1050D0002010080000010204081020004040404059
:1050E00040404000040404040404040000081020AC
:1050F00040800000002010080402010000704808F1
:105100000808F0000000003036010000C030C82858
:10511000E810E0000718272423140B000000C03813
:10512000E0000000203C23020227382008F888888D
:1051300088700000203F202020110E00C030080899
:1051400008083800071820202010080008F8080870
:105150000810E000203F202020100F0008F8888869
:10516000E8081000203F20202320180008F8888835
:10517000E8081000203F200003000000C0300808AD
:105180000838000007182020221E020008F8080036
:105190000008F808203F210101213F20000808F8FD
:1051A000080800000020203F202000000000080820
:1051B000F8080800C08080807F00000008F888C0E0
:1051C00028180800203F20012638200008F8080091
:1051D00000000000203F20202020300008F8F800C8
:1051E000F8F80800203F003F003F200008F830C0DA
:1051F0000008F808203F200007183F00E0100808CA
:105200000810E0000F10202020100F0008F80808F8
:105210000808F000203F210101010000E01008080B
:105220000810E0000F18242438504F0008F8888830
:1052300088887000203F2000030C30200070880810
:10524000080838000038202121221C00180808F81E
:10525000080818000000203F2000000008F808009F
:105260000008F808001F202020201F000878880070
:1052700000C83808000007380E010000F80800F8E0
:105280000008F800033C0700073C0300081868808A
:105290008068180820302C03032C30200838C80000
:1052A000C83808000000203F20000000100808084F
:1052B000C83808002038262120201800000000FEF1
:1052C000020202000000007F40404000000C30C09D
:1052D00000000000000000010638C00000020202C9
:1052E000FE000000004040407F0000000020100849
:1052F0000408102000000000000000000000000072
:10530000000000008080808080808080000204088F
:10531000000000000000000000000000000080808D
:10532000808000000019242222223F2008F80080FB
:1053300080000000003F112020110E0000000080BE
:1053400080800000000E112020201100000000804D
:105350008088F800000E112020103F20000080807F
:1053600080800000001F222222221300008080F093
:10537000888888180020203F2020000000008080BE
:1053800080808000006B94949493600008F8008003
:1053900080800000203F210000203F20008098985E
:1053A000000000000020203F2020000000000080BE
:1053B0009898000000C08080807F000008F80000FE
:1053C00080808000203F24022D302000000808F853
:1053D000000000000020203F20200000808080800E
:1053E00080808000203F20003F20003F0080800020
:1053F0008080000000203F2100203F2000008080AE
:1054000080800000001F202020201F00808000805E
:105410008000000080FFA12020110E00000000800D
:1054200080808000000E112020A0FF8080808000FE
:105430008080800020203F2120000100000080802B
:10544000808080000033242424241900008080E020
:10545000808000000000001F2020000080800000ED
:1054600000808000001F202020103F2080808000CE
:105470000080808000010E300806010080800080DE
:10548000008080800F300C030C300F000080800003
:10549000808080000020312E0E312000808080002E
:1054A0000080808080818E701806010000808080DE
:1054B000808080000021302C22213000000000007C
:1054C000807C020200000000003F4040000000001D
:1054D000FF00000000000000FF0000000002027C4E
:1054E000800000000040403F00000000008040407D
:1054F00080000080000000000001010000000000AA
:1055000000000000002F000000000700070000144A
:105510007F147F1400242A7F2A1200231308646258
:1055200000364955225000000007000000001C22F0
:105530004100000041221C000014083E081400082D
:10554000083E0808000000A06000000808080808DD
:10555000000060600000002010080402003E514975
:10556000453E0000427F4000004261514946002113
:1055700041454B31001814127F100027454545392D
:10558000003C4A4949300001710905030036494988
:10559000493600064949291E000036360000000041
:1055A000563600000008142241000014141414148C
:1055B000000041221408000201510906003E49552D
:1055C000592E007C1211127C007F49494936003E59
:1055D00041414122007F4141221C007F494949410C
:1055E000007F09090901003E4149497A007F080806
:1055F000087F0000417F4100002040413F01007FC3
:1056000008142241007F40404040007F020C027F8E
:10561000007F0408107F003E4141413E007F0909A0
:105620000906003E4151215E007F091929460046C6
:10563000494949310001017F0101003F4040403F9D
:10564000001F2040201F003F4038403F00631408E7
:1056500014630007087008070061514945430000C2
:105660007F414100000204081020000041417F00FA
:1056700000040201020400404040404000000102DA
:105680000400002054545478007F484444380038C3
:105690004444442000384444487F0038545454184B
:1056A00000087E0901020018A4A4A47C007F08045D
:1056B00004780000447D4000004080847D00007F2D
:1056C000102844000000417F4000007C041804784A
:1056D000007C0804047800384444443800FC242446
:1056E00024180018242418FC007C0804040800482E
:1056F0005454542000043F444020003C4040207C4F
:10570000001C2040201C003C4030403C004428103D
:105710002844001CA0A0A07C004464544C44000019
:10572000087F41000000007F00000000417F08006A
:105730000008040810080400000800000000000031
:1057400000020001000010004FBB610567ACDD3FA7
:10575000182D4454FB21E93F9BF681D20B73EF3F98
:10576000182D4454FB21F93FE2652F227F2B7A3C10
:10577000075C143326A6813CBDCBF07A8807703CC9
:10578000075C143326A6913CC4EB98999999C9BF3C
:10579000711623FEC671BCBF6D9A74AFF2B0B3BF71
:1057A0009AFDDE522DDEADBF2F6C6A2C44B4A2BF31
:1057B0000D5555555555D53FFF8300922449C23F9D
:1057C0006E204CC5CD45B73F513DD0A0660DB13FD1
:1057D000EB0D76244B7BA93F11DA22E33AAD903FE3
:1057E000000000000000000002400000000000A0D7
:1057F0000000000005400000000000C8000000009C
:105800000C4000000000409C000000001940000017
:105810000020BCBE0000000034400000BFC91B8E49
:1058200000000004B5400000504BCFD06607E2CF27
:10583000010000006C4100003E8251AADFEEA73457
:1058400001000000D9420000DCB5A0E23A301F9709
:10585000FFFFFFFFB4450000FD25A0C8E9A3C14F2D
:10586000FFFFFFFFFF3F000000000080000000007E
:10587000FF3F00000000008000000000B858000852
:1058800000000020A800000028010008605900085E
:10589000A8000020A80B0000440100081C00000024
:1058A00043000000F8FFFFFF0C0000000E000000A6
:1058B0000F0000002E00000001000000100000009A
:1058C000000000000024F4000000000000000000C0
:1058D000000000E04D62503F000000C07493683F3C
:1058E000000000E051B89E3F0000000000000000F2
:1058F00000000000000000000000000000000000A8
:105900000000000000000000000000000000000097
:105910000000000000000000000000E04D62503F69
:10592000000000C07493683F000000E051B89E3F43
:105930000000000000000000000000000000000067
:105940000000000000000000000000000000000057
:105950000000000000000000000000000000000047
:04000005080000ED02
:00000001FF
